:020000040000FA
:10000000C8280020F90200000103000003030000DB
:1000100005030000070300000903000000000000C2
:100020000000000000000000000000000B030000C2
:100030000D030000000000000F030000110300008A
:100040001303000013030000350800001303000031
:100050001303000013030000CD030000130300008E
:10006000F90700000D08000021080000130300003C
:100070001303000013030000130300001303000028
:10008000130300001303000013030000A10300008A
:100090001303000013030000130300001303000008
:1000A00013030000130300001303000013030000F8
:1000B0001303000013030000000000000000000014
:1000C00013030000130300001303000013030000D8
:1000D00013030000130300001303000000000000DE
:1000E0000000000000000000000000000000000010
:1000F0000000000000000000000000000000000000
:1001000000000000000000000000000000000000EF
:1001100000000000000000000000000000000000DF
:1001200000000000000000000000000000000000CF
:1001300000000000000000000000000000000000BF
:1001400000000000000000000000000000000000AF
:10015000000000000000000000000000000000009F
:10016000000000000000000000000000000000008F
:10017000000000000000000000000000000000007F
:10018000000000000000000000000000000000006F
:10019000000000000000000000000000000000005F
:1001A000000000000000000000000000000000004F
:1001B000000000000000000000000000000000003F
:1001C000000000000000000000000000000000002F
:1001D000000000000000000000000000000000001F
:1001E000000000000000000000000000000000000F
:1001F00000000000000000000000000000000000FF
:10020000DFF80CD000F0BAF800480047E90F000012
:10021000C828002030B4044654E8000F0D4644E8D6
:100220000053002BF8D1156030BC704730B4044641
:1002300054E8000F40EA010544E80053002BF7D1D1
:10024000156030BC704730B4044654E8000F00EA33
:10025000010544E80053002BF7D1156030BC70470E
:1002600030B4044654E8000F80EA010544E8005326
:10027000002BF7D1156030BC704730B4044654E809
:10028000000F00EB010544E80053002BF7D1156087
:1002900030BC704730B4044654E8000FA0EB0105B1
:1002A00044E80053002BF7D1156030BC704770B4A0
:1002B00004464FF0000054E8006F0D68AE4207BFDF
:1002C00044E80023012044E800630E60002B1CBFBB
:1002D0000020F0E770BC704730B4044654E8000FCB
:1002E00088422CBF451A054644E80053002BF5D13F
:1002F000156030BC7047000006488047064800473C
:10030000FEE7FEE7FEE7FEE7FEE7FEE7FEE7FEE7C5
:10031000FEE7FEE7210500000102000000487047EB
:10032000202F000040EA01039B0703D009E008C921
:10033000121F08C0042AFAD203E011F8013B00F8AA
:10034000013B521EF9D27047D2B201E000F8012BF6
:10035000491EFBD270470022F6E710B513460A4645
:1003600004461946FFF7F0FF204610BD421C10F866
:10037000011B0029FBD1801A70470000064C074D75
:1003800006E0E06840F0010394E807009847103465
:10039000AC42F6D3FFF738FFD42F0000F42F000053
:1003A00010B50121080200F0A7FC02214FF4827071
:1003B00000F0A2FC04214FF4847000F09DFCBDE825
:1003C000104008214FF4867000F096BC2DE9F843E8
:1003D00026A000F035FA0025DFF8A0804FF48076E3
:1003E00001242F460095304601F042F938B1D8F883
:1003F0000403204203D0304601F030F92543361D76
:1004000064007F1CB6B2082FEDD34FF4BE742046B3
:1004100001F02EF948B1204601F020F945F00045E1
:100420006A460121002001F0F3F815F0FF0F16D005
:10043000012600242E420ED008EB8401D1F81005CD
:10044000D1F81015C0F304200D4AC1F3014152F850
:10045000242002B190477600641C082CEAD3002DBA
:1004600002DA684602F0FCF8BDE8F8830D0A206D58
:100470005F72785F6275663D200D0A000060004083
:1004800014030020FEB5234903200860224802A976
:10049000006802900D2001F063FC08B100F03AFA08
:1004A0001E4D0D2001F012FC07462C1D0D2001F001
:1004B000C9FC0646684601F0DDFC08B100F02AFAE6
:1004C000324629469DF8000001F004FD08B100F015
:1004D00021FA9DF8000001F01FFD08B100F01AFAA2
:1004E00001A801F0C7FC08B100F014FA3A46214611
:1004F0009DF8040001F0EEFC08B100F00BFA9DF845
:10050000040001F009FD08B100F004FA0D2001F02B
:1005100087FCFEBD10650040182E0000043101402C
:10052000F0B5A449A4484FF080540B68D4F83021AA
:100530000078D4F83411551CC0F3031006D094464B
:1005400001270026BCF1060F03D00AE003F0FF0CE0
:10055000F6E7B4F82453DFF864C2C5F30425CCF8F9
:100560000050DDB2062D06D1032804D1DFF854C2B5
:10057000934DCCF87450551C04D09446BCF1060F32
:1005800003D00AE003F0FF0CF8E7D4F84452DFF898
:1005900038C2C5F34235CCF80050DDB2062D08D183
:1005A000032806D1894DD5F800C02CF0807CC5F811
:1005B00000C0551C04D09446BCF1060F03D00BE0DC
:1005C00003F0FF0CF8E74FF08045C5F80C61C5F863
:1005D00010617D4D2D1F2E60DDB2062D08D1032840
:1005E00006D1DFF8E4C103250CF1640CCCF800500F
:1005F000DDB2062D10D103280ED1DFF8D4C10525B8
:10060000CCF80050724D78352F60714D08352E6052
:100610000CF104063F253560551C04D016460D46E6
:10062000062E03D05BE0DEB20546F9E7ED1E012D94
:1006300055D9684D2D68684E3560664D2D1D2D6865
:10064000361D3560634D08352D68361D3560614DAA
:100650000C352D68361D35605E4D10352D68361D04
:1006600035605C4D14352D68361D3560594D183593
:100670002D68594E20363560564D1C352D68361D77
:100680003560544D20352D68361D3560514D24356B
:100690002D68361D35604F4D28352D68361D356067
:1006A0004C4D2C352D68361D35604A4D30352D6842
:1006B000494E40363560474D34352D68361D35601E
:1006C000444D38352D68361D3560424D3C352D681A
:1006D000361D35603F4D40352D68361D3560551C43
:1006E00003D01646062E02D007E0DEB2FAE7D4F8B1
:1006F00058523A4E05F04F053560551C03D013464D
:10070000062B02D008E0DBB2FAE735480368DB07C6
:1007100002D06FF001030360062A07D1C91E022927
:1007200004D93048016841F4806101602748743879
:10073000016841F470010160BFF34F8FBFF36F8F09
:10074000D4E94C104FF01022062907D1C01E03280F
:1007500004D9D2F808021C491C310860D2F8000202
:10076000002803DBD2F8040200281FDA012001F080
:100770005DFF1521C2F800121B480368002BFCD056
:10078000C2F8041201680029FCD0002001F04EFFDD
:10079000BFF34F8F0D48F0380168144A01F4E0614F
:1007A00011430160BFF34F8F00BFFDE711491048AF
:1007B0000860F0BDE00F00F0E80F00F040350140A8
:1007C0000DF0ADBA00C007403C050040FCED00E074
:1007D000105600400404001020C50040E40E004004
:1007E000000400403C17004000E401400400FA050A
:1007F0000090D003C000002004220249024800F00B
:1008000069BB000060030020008000400422024910
:10081000024800F05FBB00006C0300200090004025
:1008200004220249024800F055BB00007803002072
:1008300000A0004001480068004700000C000020B4
:10084000014A024900F013B8630D0000480000207F
:1008500002E008C8121F08C1002AFAD17047704789
:10086000002001E001C1121F002AFBD170472DE9D1
:10087000F04116460F460446002503E03946B047CE
:10088000641C6D1C20780028F8D12846BDE8F08152
:1008900010B572B601F01CF900F08EFF0028FBD1F4
:1008A00011481249401AC408012000EB044010A16D
:1008B00001F09AF811480068C00700D000BE02207D
:1008C00000EB04400EA101F08FF8BFF34F8F0B48EF
:1008D000E43801680E4A01F4E06111430160BFF39E
:1008E0004F8F00BFFDE700003C30000004300000E7
:1008F000466174616C206572726F7200F0ED00E009
:1009000053797374656D207265736574000000001F
:100910000400FA050EB500210091CDE901106A46E8
:1009200044F20100FFF7B4FF0EBD10B58268C36842
:10093000934203D000F002FA002010BD052010BD44
:1009400029B112B1531E134203D0092070470E2063
:1009500070470160838000218160C1600846704754
:1009600010B58268C3689A1A83889A4203D800F047
:10097000EFF9002010BD042010BD0000F0B5244E9A
:1009800089B01F460D00044672603FD0A8882968D0
:1009900082B22048FFF7D4FF002835D1A889A96882
:1009A00082B21C481030FFF7CBFF00282CD1202248
:1009B00019496846FFF7B6FC60690690207C00B1D3
:1009C00001208DF814008DF81C70607C00B10E20A1
:1009D0008DF81500E0680290A068039020680190EF
:1009E000606800900A480D4A6946083000F034FCFF
:1009F000002809D1B0702068401C05D004490122AC
:100A0000491CC81D00F05CFC09B0F0BD0720FBE7E5
:100A10002C00002084030020502E0000C529000077
:100A200010B501461048FFF79BFF040019D10F488D
:100A30000F4A0178515C19B1001D01F065FD02E01B
:100A40000C3001F0DBFB60B9084907480839FFF7B3
:100A50006CFF30B9054901220839044800F040FC18
:100A60000446204610BD00009403002034000020FE
:100A70000000002000F002B800F008B872B602488A
:100A80000168491C0160704728000020034908687C
:100A9000401E086000D162B67047000028000020A8
:100AA0002DE9F041064608680C46411C4FF0A0476E
:100AB0004FF0010506D005FA00F1C7F808152068C7
:100AC00000F07EFD6068411C02D0002100F066FD50
:100AD0003168A069C1F82405607D227D316810432A
:100AE000C1F86C05D4E900123068C0F81425C0F8CC
:100AF0000C15207D012815D1A068411C02D00021D1
:100B000000F04CFDE068411C05D08540C7F8085551
:100B1000E06800F055FDD4E902123068C0F80825FD
:100B2000C0F81015BDE8F0812DE9F04106460868CF
:100B30000C46411C4FF0A0474FF0010506D005FAC6
:100B400000F1C7F80815206800F045FD6068411CF9
:100B500002D0002100F02BFD3168A069C1F8240506
:100B6000607D217D32680843C2F86C05D4E900122B
:100B70003068C0F80C15C0F81425207D012815D167
:100B8000A068411C02D0002100F011FDE068411C6A
:100B900005D08540C7F80855E06800F01CFDD4E991
:100BA00002123068C0F80825C0F81015BDE8F081C1
:100BB0002DE9F0470546861C91460F464FF0010A85
:100BC0000020FFF757FF1B4C04F21C486068386098
:100BD000D4E90101184F401A3968081A0EE00121C2
:100BE000404600F0CBFA00F0ADF90146404600F077
:100BF000C5FAD4E90101401A3968081A401C864236
:100C0000EDD8B9F1000F03D0052065F3891002E09B
:100C1000062065F39F5061683A68114004EB81013A
:100C2000C8606068304460600020FFF725FF5046D0
:100C3000BDE8F087A40400206C00002070B50D46CC
:100C400004460A2902D10D21FFF7F8FFA0682268A7
:100C5000411CA1601554D4E90101814204D320460E
:100C6000BDE8704000F059BB70BD000004488168C9
:100C70004068814201D10120704700207047000088
:100C8000A404002005494FF0FF32082841F8202035
:100C900002D3084480F83C20704700001403002071
:100CA000F0B54FF0FF3512B10023082601E008230C
:100CB00009260C4C05E000BF54F823707F1C04D0BB
:100CC0005B1CB342F8D32846F0BD26185DB286F807
:100CD000245044F82310002AF5D1E11881F83C0093
:100CE000F1E70000140300200249084490F92400B1
:100CF000704700001403002010B50446084822582D
:100D0000002A0CD0D0F80403084208D0204600F096
:100D10008DFA044920464968BDE81040084710BDD7
:100D2000003001401400002010B50021024800F0FE
:100D300030FA80F3100010BDC0080020826883885C
:100D40001A4003689A5C0A708168491C8160704788
:100D5000C26883881A4003689954C168491CC160FD
:100D6000704710B50446C0B2FFF75AFE204610BDCA
:100D70002DE9FC5F0E008346DDE90C47C6F100005B
:100D800098469246814600D40846012503E000BFFC
:100D900090FBFAF06D1C5045FADAA84500D945469B
:100DA00024B1002E01DB780700D5641EB80702D5F8
:100DB000B8F1000F0AD0F80708D13CB1A54205D21E
:100DC00020215846641EFFF739FFF6E7002E02DAAD
:100DD0004E462D2102E0780703D52B215846FFF718
:100DE0002DFF07F0030002280BD1B8F1000F08D146
:100DF0003CB1A54205D230215846641EFFF71EFFC4
:100E0000F6E7CDE90047434652463146584601F0E1
:100E1000A9FFBDE8FC9F000070B50D4604460068C0
:100E20004FF4887100F04BFF4FF49071206800F090
:100E300046FF4FF49271206800F041FF4FF4A27119
:100E4000206800F03CFF4FF4AC71206800F037FFE1
:100E500020681249C0F804132068690740F307307E
:100E6000090E002804DB00F1E02080F8001405E002
:100E700000F00F0000F1E02080F8141D206840F31E
:100E80000730002809DB00F01F02012191404009D2
:100E9000800000F1E020C0F8001170BD1003420096
:100EA000024600201268530713D502F00300012800
:100EB00002D002280CD105E0C2F383100B68801C1D
:100EC000184404E00223086803EB925210440860BF
:100ED000012070472DE9F041174688460646002458
:100EE00017E000BF4FF4A07000EB84054FF4803092
:100EF0007159A04059B1D6F80413014207D02946D0
:100F0000304600F0C0FED8E9002128469047641C16
:100F1000E4B2BC42E6D3BDE8F0810000012181408B
:100F200003484068014201D001207047002070470B
:100F30002000002001218140080300D001207047DB
:100F4000704700002DE9FF410026244800F013F906
:100F50002248001F074600F00EF9214C2149A068E5
:100F600000900D6800E000986946284004EB80007E
:100F70000C30FFF795FF0028F5D101AA009901EA8E
:100F8000050304EB8303491CDB6842F82030401C56
:100F900000910228F2D3019800F0030001280BD041
:100FA000022810D10198032101EB90500099BDF85F
:100FB0000A6001EB900005E00198BDF80A60C0F3FB
:100FC000831008440090384600F0D2F808B1009829
:100FD000A06004B03046BDE8F0810000BC080020ED
:100FE000A40400206C0000204FF080408AB0002450
:100FF000C0F8004101250560D0F800110029FBD0A0
:10100000182223496846FFF78DF922484FF480766D
:10101000CDE9060600F58070CDE9080607231E4AD3
:1010200006A96846FFF7AAFC08B1FFF773FC1BA0EE
:10103000FFF706FC00F05AFE08B1FFF76BFC00F06A
:10104000FFF808B1FFF766FC1B480621C0F804133F
:101050001A490C60194908310D60184930310E6089
:101060000A6842F002020A60091D0C60134A072157
:10107000121D1160114A0221121F1160C0F80050A8
:10108000D0F800110029FBD0FFF7FCF9FEE70000C3
:101090001C2E0000C4000020B12900000D0A434F9F
:1010A0004D50206578616D706C6520737461727449
:1010B00065642E0D0A000000003001400435014037
:1010C0002DE9F047C5881E1DB6FBF5F78946B6FB2E
:1010D000F5F1044605FB176C407916686843DDF8A6
:1010E00020A0F718001F874200D9C61A166001E039
:1010F0002468491E0029FBD1A5EB0C078846B7429E
:1011000016D818E004EB0C00001D09EB0803BAF137
:10111000000F3A4602D00146184600E01946FFF794
:1011200001F92468F61B4FF0000CB844B54201D910
:10113000374600E02F46002EE4D1BDE8F0870000DE
:1011400030B5024651B100F0ABFC0021074C08E07D
:1011500034F821301568AB4202D11160002030BD57
:10116000491C8142F4D3052030BD0000000000007E
:10117000002100F009B8012100F010B808B56A4656
:10118000FFF77BF8009808BD08B56A46FFF75BF8E3
:1011900008BD08B56A46FFF73DF808BD08B56A46C0
:1011A000FFF744F8009808BD08B56A46FFF772F8E3
:1011B000009808BD70B5044600252846FFF75AFC84
:1011C00021686268086890420ED9401E0860017864
:1011D000238AE26801FB0325227A2168101AC0B233
:1011E0000A79824200D208710020FFF745FC2846A8
:1011F00070BD70B505460C460020FFF73BFCE86863
:10120000298A201AB0FBF1F12A681068431C136088
:101210000170BDE870400020FFF72EBCC20800F04E
:1012200007030120895C984008407047034908B5CE
:101230000844002202600068009008BD00300140B0
:101240000448017809B18520704701210170002010
:10125000704700001C000020F0B5054604781548D2
:1012600089B0164640F82420124A0869121DA2F1DE
:10127000080742F82400487F385520226846FFF7C7
:1012800051F804942878385C48B10EB10A4A00E05D
:1012900000226946281D01F029F809B0F0BD0EB101
:1012A000064A00E00022694605F10C0000F072FEDB
:1012B000F3E7000004000020212C0000692A000050
:1012C00030B40378054CE35C1BB130BC001D01F069
:1012D00043B830BC0C3000F0C7BE00000000002056
:1012E00030B40378054CE35C1BB130BC001D01F049
:1012F000B5B830BC0C3000F02DBF0000000000205D
:101300000FB408B50399002904D004AA00926A46D4
:1013100000F00FF801B05DF814FB10B582680446C8
:10132000002A05D0D4E90403216898470020A06072
:1013300010BD2DE9FC4791460C00804676D014F88C
:10134000011B39B125290ED04046FFF777FC2078E4
:101350000028F4D198F80C00002867D04046BDE87A
:10136000FC47FFF7DABF0020012221782B291BD090
:101370002D2902D0302908D102E040F0010001E01F
:1013800040F00200641C002AEFD100252A290ED06B
:101390002178A1F130020A2A11D205EB850201EB76
:1013A0004205641C303DF1E740F00400EAE7D9F85B
:1013B00000100B1DC9F800300968641C0D44217829
:1013C00000232E290BD114F8011FA1F130020A2AA3
:1013D00005D203EB830201EB4203303BF3E76C29B8
:1013E0000DD068290BD0692921D00BDC252918D014
:1013F000582931D063290ED0642915D117E014F88B
:10140000011FECE7702969D0732932D075291BD0F0
:10141000782909D120E0D9F80000011DC9F8001091
:1014200001784046FFF70AFC641C90E76CE0D9F8AD
:1014300000100A1DC9F800200968CDE900500A22F1
:101440004046FFF795FCEFE7D9F800100A1DC9F8F0
:10145000002009680A2206E0D9F800100A1DC9F820
:10146000002009681022CDE90050404601F07AFCC6
:10147000DAE7D9F8001000270A1DC9F800200E6825
:10148000C00705D112E04046761C7F1CFFF7D6FB53
:1014900031780029F7D104E0202140466D1EFFF786
:1014A000CDFBBD42C0D9002DF6D1BDE74EB13046CF
:1014B000FEF75CFF074604E0202140466D1EFFF763
:1014C000BDFBBD4206D9002DF6D103E04046761C97
:1014D000FFF7B4FB31780029F8D1A5E7D9F800006F
:1014E000011DC9F80010056830214046FFF7A6FB32
:1014F00078214046FFF7A2FB08200021CDE900013A
:10150000034610222946B0E7BDE8FC8770B541EAE2
:101510004201DDE904564FF0A04441EA830141EA6B
:10152000052104EB800041EA0641C0F8001770BDB8
:1015300070B541EA4201DDE904564FF0A04441EAAA
:10154000830141EA052104EB800041EA0641C0F82D
:10155000001770BD70B541EA4201DDE904564FF055
:10156000A04441EA830141EA052104EB800041EAFD
:101570000641C0F8001770BD1CB5002100910B4654
:1015800001220191FFF7C2FF1CBD1CB50021009193
:101590000B4601220191FFF7CBFF1CBD1CB50022B9
:1015A0000B46009211460192FFF7B0FF1CBD1CB51F
:1015B00000220B46009211460192FFF7B9FF1CBDB5
:1015C0001CB500220221CDE900121346012211466A
:1015D000FFF79CFF1CBD1CB500220221CDE90012C3
:1015E000134601221146FFF7A3FF1CBD4FF0A04296
:1015F00002EB8000D0F8002722F44032C0F8002728
:10160000D0F8002742EA0141C0F8001770470000F7
:1016100038B5094B44181B6800936B4608E000BFBF
:1016200053F82010D1F8205520C2C1F82055401C95
:101630008442F5D838BD00003C2E000042094FF02E
:10164000000100D1491E00F01F00012282400A4221
:1016500001D001207047002070470000034908B501
:101660000844002101600068009008BD006000404F
:1016700002494058012800D0002070470060004017
:10168000F0B595B01C4615460E4608461A9F00F068
:10169000D7FA182109A8FEF75EFE0E97CDE9095486
:1016A0000023082203A9304600F0DDFA05980690D1
:1016B000BDF81000ADF81C00BDF81200ADF81E001A
:1016C00000208DF821000399082501F0030001286E
:1016D00002D0022816D02FE0C1F3C200C1F3831755
:1016E0008C0A8DF82000BA002B460FA9304600F076
:1016F000BAFA09A8009006AB3A460FA9204600F0B6
:10170000FBF919E0C1F3C2008C0D8DF82000082C04
:1017100001D2274600E008272B463A460FA930465B
:1017200000F0A1FA3D44E41B09AB06AA39460FA814
:1017300000F05EF9002CEAD1304600F085FA15B0D1
:10174000F0BD7047084810B50178084A515C19B1DE
:10175000001D00F0E7FE02E00C3000F05FFDBDE888
:101760001040002001F09EB9500000200000002031
:1017700008B5034A00924023024AFFF781FF08BDE3
:1017800085280000A40300200A4A012902EBC000BA
:1017900007D0022907D0032907D0042907D0002049
:1017A00070470220704704207047007970474079E5
:1017B00070470000043000002DE9FF47FFF756FA9C
:1017C00018B1002004B0BDE8F0877D4C0020C4F8BB
:1017D0001804BFF34F8F7B49A06800900D684FF04D
:1017E0000008284004EB80000CE000BFD4F8180487
:1017F00070B961680098814201D8A160E1E7284092
:1018000004EB80000C306946FFF74AFB0028EDD15D
:10181000002001AA009901EA050304EB8303491C97
:10182000DB6842F82030401C00910228F2D3019876
:1018300000F00301022902D001294DD0A5E0810D5D
:1018400050228946B2EB905F00D850210E4666F3D5
:101850009F50019008315C4800F0A9F9070077D04B
:1018600000F0EEF94346082201A9384600F003FAD9
:10187000009908F1080A2940681A8000001D864274
:1018800023D94F4D0C3530B1C2B204EB8101301A6F
:1018900090460C3104E02946F2B2002590462846D5
:1018A000C6B25346384600F0E6F90AEB08032DB1FC
:1018B000324629464FEA070000F0DDF9009909F1A8
:1018C000030001EB9000009039E004EB81015346E6
:1018D000324638460C31EFE7C0F38311062900D3B6
:1018E000062161F389100190C0F38310801C8100F0
:1018F000354800F05CF9070047D000F0A1F94346F5
:10190000082201A9384600F0B6F908F108080026B7
:101910000FE00098434600EA0501401C04EB8101FA
:101920000090042238460C3100F0A5F908F10408B3
:10193000761C0198C0F38310B042EAD847B1D4F8BE
:101940001054D4F8180478B1384600F07DF931E02D
:101950001BE0E8684079012804D12A682846394606
:1019600012689047E8680568002DF2D1384600F00B
:101970006BF90020FFF77EF8D4F8180408B9009836
:10198000A0600020FFF778F814E0D4F8104405E0D8
:101990002168204689688847E0680468002CF7D1F0
:1019A0000A480B49401AC008022101EB004009A176
:1019B00000F01AF8FFF75AF980F0010002E7000082
:1019C000A40400206C000020443000003C300000E3
:1019D000043000004261636B656E647320666C7551
:1019E000736865640000000000231A4600F06ABFB7
:1019F0002DE9F0470E4680461C469246082940D8FD
:101A000094F80C90002020731946104600F0A2FEB6
:101A10000025B54206D218F805201BA12046FFF785
:101A20006FFC03E01AA12046FFF76AFC6D1C082D2D
:101A3000EFD318A12046FFF763FC0025B54212D270
:101A400018F805707E2F08D8FEF768FC0068C05DA6
:101A500010F03E0F01D03A4600E02E220EA12046A3
:101A6000FFF74EFC03E00DA12046FFF749FC6D1C7B
:101A7000082DE3D301222146504600F04DFE84F8A4
:101A80000C90BDE8F087000020253032780000007F
:101A9000202020007C0000002563000020000000C2
:101AA00002480349401AC008704700004430000053
:101AB0000430000013B56846FFF742FB08B1002070
:101AC0001CBD0248009950F831001CBD04300000D4
:101AD00070B508480125D0F81044057007E0E068AB
:101AE00045712168204649688847E0680468002CF1
:101AF000F5D170BDA40400202DE9FF4781460C9D5F
:101B000000200C462F7B2873984616462946184617
:101B100000F020FE072E42D2DFE806F004090F167F
:101B20001F2A360049462846FFF7EAFB37E04946B8
:101B300028462268FFF7E4FB31E0D4E90023494658
:101B40002846FFF7DDFB2AE0A0680090D4E90023D7
:101B500049462846FFF7D4FB21E0D4E90201CDE94C
:101B60000001D4E9002349462846FFF7C9FB16E0E7
:101B700004F1080007C88DE80700D4E900234946AE
:101B80002846FFF7BDFB0AE004F108000FC88DE806
:101B90000F00D4E9002349462846FFF7B1FB002295
:101BA0002946404600F0B8FD2F73BDE8FF872DE9B8
:101BB000F041058A80462D1F4819C01CB0FBF5F086
:101BC000C6B24046FFF7F6FA041E19D00020207175
:101BD00001206071E58000272546761EC4F800804C
:101BE0000BE04046FFF7E6FA60B16179491C61718C
:101BF000286005467F1CC0F80080B742F1D320461C
:101C0000BDE8F081204600F002F80020F8E72DE959
:101C1000F041457901466B1E002201E00968521C23
:101C20009A42FBD30F680146002605E038460C684F
:101C3000FFF7DFFA2146761CAE42F7D3BDE8F0810C
:101C40000121001DFFF79ABA10B504460121001DBD
:101C5000FFF7AAFA10F0FF0F04D12046BDE81040AC
:101C6000FFF7D5BF10BD1CB501920122009201AA59
:101C7000FFF726FA1CBD1CB501920022009201AAB2
:101C8000FFF71EFA1CBD08B50022425040580090D4
:101C900008BD4058002800D00120704708B5002238
:101CA00042504058009008BDD0F80403084000D0CE
:101CB000012070474058002800D00120704708B527
:101CC000002242504058009008BD000010B500F0BE
:101CD00005F80149084410BD0060004010B5FFF749
:101CE00003F8602101EB8000C0B210BD70B5194D42
:101CF00095F8490008B1082070BD0024661E2046F2
:101D0000FFF79CFC10B1281980F82460641CE4B231
:101D1000202CF4D300242046FEF7B4FF641CE4B268
:101D2000092CF8D300200D4945F8450F0A4CC02076
:101D300081F8000401264020891FC1F800014FF4FA
:101D4000BE70FFF78BFCA004C4F804032E710020C2
:101D500070BD0000140300200060004006E000E0B9
:101D60002DE9FC4104462B480F462044002590F9FC
:101D70002410491C01D0082545E0B978002651B34C
:101D8000012200212046FEF78BFF411C21D0830059
:101D900021483A7818447978D0F81035DFF87CC0BB
:101DA00003EA0C03C0F81035D0F810354FF4F85C96
:101DB0000CEA042C43EA0C034FF4403C0CEA0242C8
:101DC0004FF4801C0CEA01510A431343C0F810354C
:101DD00004E0042517E0FE2180F824107A78012021
:101DE000A0404FF0A041012A10D0C1F80C050221FB
:101DF000CDE900160122204600231146FFF7AAFB79
:101E0000204600F01FFC2846BDE8FC81C1F808050B
:101E1000EDE700001403002000600040FFE0ECFF4D
:101E20000649084490F92400810005480844D0F888
:101E3000101541F00301C0F810157047140300207D
:101E40000060004010B500F005F80149084410BDDD
:101E50000060004010B5FEF747FF302101EB800025
:101E6000C0B210BD0121B1EB507F01D101207047FC
:101E7000002070472DE9F0470427144E81460024C6
:101E80004FF001080020FEF7F5FD08FA04F5354291
:101E900003D02046FFF742F858B10020FEF7ECFDD2
:101EA00027B104F10104AE43E4B2EBD13846BDE8FA
:101EB000F087074908FA04F000274A681043486091
:101EC00089F800403846FEF7D7FDEFE7FFFF0F0027
:101ED000200000202DE9F04114460D00074612D0E5
:101EE0008CB10026FFF726F878B13846FFF716F8D0
:101EF00068B1084800EBC700C0F81055C0F8144599
:101F00003046BDE8F0810E20FBE70726F8E70826FB
:101F1000F6E7000000F0014070B5044601260025F8
:101F2000A640FFF707F818B12046FEF7F7FF18B1F3
:101F300002480660284670BD0825FBE704F501400D
:101F400070B50D4600F052FC04000FD00020FEF7E3
:101F500091FD207920B10020FEF78EFD112070BD8B
:101F60000120256020710020FEF786FD002070BD55
:101F700010B500F03BFC002802D000210160017187
:101F800010BD00000149024800F0B4BDC4020020A9
:101F9000002000402DE9F0410546007916460F4625
:101FA00000EB40012D4A01EBC00102EB810494F8E3
:101FB0002A1011B10820BDE8F081294951F82010FC
:101FC0002868FFF7BDFF08B11120F4E7394628461D
:101FD000FEF766FD66603869206030004FF001064C
:101FE0002FD03F7F4FF48E712868FFF757FE4FF4D4
:101FF000A2712868FFF752FE28681A49C0F8041336
:1020000028684FEA471140F30730002804DB00F14D
:10201000E02080F8001405E000F00F0000F1E0205F
:1020200080F8141D286840F30730002809DB00F011
:102030001F0106FA01F14009800000F1E020C0F81C
:10204000001128680421C0F800150020A061E0619B
:1020500084F8290044F8140FA675ACE7C4020020E8
:10206000342E0000800002002DE9F05F0546007963
:102070004FF4017600EB400303EBC000344B03EB5D
:1020800080040020636813B12B68C3F80863A36958
:102090004FF000096BB1E06938B1606810B1286891
:1020A000C0F804631120BDE8F09FE26101202161C6
:1020B00005E0C4F82490A261E160C4F81C9094F893
:1020C0002910014302D1284600F0CBFB60680028AC
:1020D000286803D0C0F804630020E4E74FF4A27638
:1020E0003146FFF7DBFDB2464FF4927B5946286834
:1020F000FFF7CFFD06464FF484712868FFF7C9FD4E
:10210000804651462868FFF7C4FD074648EA0700A5
:102110003043EBD056EA070007D12146286800F08B
:1021200071FBA169606A8142E0D8C4F818900EB1D1
:102130000320B8E70FB10F20B5E794F8291001206C
:102140000029296801D00860C6E74860C4E700009C
:10215000C40200202DE9F05F054600790B4600EB34
:10216000400101EBC000244901EB8004284600F047
:1021700045F810B11120BDE8F09F62614FF00009F1
:10218000C4F82090A36084F828904FF48E784E46CF
:1021900041462868FFF782FD28684FF0010AC0F821
:1021A00008A02146286800F0D9FB606808BBD5F874
:1021B00000B067690FE000BF94F8280008B10F264F
:1021C00015E041465846FFF764FD0028F4D021464B
:1021D000584600F0C3FB206AB842F2D35746414646
:1021E0002868FFF756FD0028F9D02868C760C4F8B2
:1021F00014903046BFE70000C4020020007900EBD5
:10220000400101EBC000044901EB80004069002857
:1022100000D0012070470000C40200202DE9F047E3
:10222000044600794FF0000900EB400101EBC000CB
:10223000284901EB80072068C0F800957868B0B1A4
:1022400020682549C0F80813206840F307300028AB
:102250000DDB00F01F02012191404009800000F1D8
:10226000E020C0F88011BFF34F8FBFF36F8F20685D
:10227000D0F80C25D0F81485D0F80865D0F81055A2
:102280004FF0FF31C0F81415C0F80C152068C0F8E5
:102290000815C0F81015501C02D01046FFF76CF955
:1022A000B8F1FF3F02D04046FFF766F9681C02D044
:1022B0002846FFF761F9701C02D03046FFF75CF941
:1022C0002068FFF755FE87F82A90C7F80490BDE80C
:1022D000F0870000C4020020840202000149024885
:1022E00000F0B6BCF0020020002000402DE9F041D3
:1022F0000546164600790F46154A00EBC00102EB71
:10230000810494F8201011B10820BDE8F081114932
:1023100051F820102868FFF713FE08B11120F4E7E8
:1023200039462846FEF700FC6660386920601EB119
:10233000397F2846FEF770FD28680821C0F800158F
:102340000020A061E0616061012184F82010DCE7D9
:10235000F0020020382E00002DE9F05F04460079DD
:102360000E4600EBC001DFF8F0A017460AEB81052E
:102370003046FFF777FDB0B168684FF000084FF4C2
:10238000047910B12168C1F80893A8694FF0000BD7
:1023900080B1E86948B1686810B12068C0F804935A
:1023A0001120BDE8F09F1020FBE7EF614FF001081E
:1023B0002E6102E0EE60C5E9067B00254FF48871CE
:1023C0002068FFF77CFC4FF4A2712068FFF777FCD0
:1023D0002068C0F83465C0F838752068B8F1000F7F
:1023E00012D0D0F8001241F02001C0F8001220797C
:1023F000D04600EBC0010AEB8100406838B120688C
:10240000C0F804932846CCE701210160EFE74FF4C0
:10241000887A4FF4A27951462068FFF74BFC0746B3
:1024200049462068FFF746FC06464FF49271206843
:10243000FFF740FC014647EA06000843EBD022794B
:1024400002EBC20308EB8302C2F818B001B1032506
:10245000002ED7D00F25D5E7F00200202DE9F04758
:1024600004460E460079274900EBC00001EB8005C9
:1024700017463046FFF7F6FC30B1204600F044F82E
:1024800020B11120BDE8F0871020FBE76F61AE603E
:102490004FF490774FF0000839462068FFF70FFCA3
:1024A0004FF4AC7631462068FFF709FC2068AA6833
:1024B0006969C0F84425C0F8481520684FF0010943
:1024C000C0F808906868D0B9BA4651462068FFF74E
:1024D000F1FB074631462068FFF7ECFB0743F4D0D9
:1024E00010B14FF00F0808E02068C0F80C9031469A
:1024F0002068FFF7DFFB0028F9D000206861404624
:10250000C0E70000F00200200079054900EBC000A0
:1025100001EB80004069002800D0012070470000D6
:10252000F00200202DE9F047064600793D4900EB16
:10253000C00001EB8005346868680127A8B13A49FA
:10254000C4F80813306840F3073000280DDB00F0B2
:102550001F0107FA01F14009800000F1E020C0F8F6
:102560008011BFF34F8FBFF36F8FD4F8000220F0BC
:102570002000C4F80002A8694FF4A27820B14146B7
:102580002046FFF79CFB67604FF4AC794946204634
:10259000FFF795FBE760474649462046FFF78AFB71
:1025A0000028F9D0A86928B139462046FFF782FBF8
:1025B0000028F1D04FF0000AC4F800A53068D0F828
:1025C0000C25D0F81495D0F80885D0F810754FF088
:1025D000FF31C0F80C15C0F814153068C0F80815A4
:1025E000C0F81015501C02D01046FEF7CEFFB9F10E
:1025F000FF3F02D04846FEF7C8FF781C02D038469D
:10260000FEF7C3FFB8F1FF3F02D04046FEF7BDFF23
:102610002046FFF7ADFC85F820A0C5F804A0BDE872
:10262000F0870000F0020020100342000349086018
:10263000034801680029FCD07047000004E5014010
:1026400000E4014010B50549C20800F00703885CAA
:1026500001249C402043885410BD000059030020F1
:102660002DE9F05FDFF89C8006464FF0A0494FF05F
:10267000010A98F9440000274546401C37D095F8D8
:102680004400314620F0C0042046FEF7C7FD08B3E1
:10269000384600F039F8834609EB8400D0F800078B
:1026A000C0F30147022F16D002212046FEF79EFFFD
:1026B0000AFA04F1C9F820152046FEF715FB55F873
:1026C00020203AB15846BBF1030F0DD0022F04D0A1
:1026D000032F06D00BE00321E7E7BBF1010F03D086
:1026E00005E0BBF1020F02D1014620469047324679
:1026F00001210020FEF78CFF30680028B9D1BDE829
:10270000F09F0000140300200249084490F84400A0
:10271000800970471403002010B50C46017A052982
:1027200008D0407A38B1084808A102682046FEF770
:10273000E7FD00E01AB106A12046FEF7E1FD2046C4
:10274000BDE81040FEF7E9BD9C00002025730000A5
:102750000D0A000038B5C3880D46044633B114A0F5
:10276000009015A216A12846FEF7CAFD217A052978
:102770001CD0607A48B1A088FFF706F8164951F8D6
:10278000202016A12846FEF7BBFDA0880021FFF7F8
:1027900091F903461049207A143951F8202001B0EC
:1027A0002846BDE830400EA1FEF7AABD38BD0000A6
:1027B0001B5B306D000000001B5B313B33316D0053
:1027C00025734C6F67732064726F70706564202886
:1027D00025642925730D0A009C0000202573000044
:1027E0003C25733E2025733A2000000003498842AF
:1027F00001D10348704700207047000000200040CE
:102800000C00002070B5054688690C4600284FF47E
:10281000847128460AD0FFF741FAD5F81805626A94
:10282000E1688854606A401C606270BDFFF736FA48
:10283000D5F8180570BD1FB501238DF80030CDE91E
:102840000121D0E90012684690471FBD1FB5012342
:102850008DF80030CDE90121D0E90012684690479B
:102860001FBD10B5044600684FF49271FFF716FAC9
:102870004FF484712068FFF711FA2068012101608C
:1028800010BD000070B50D4C0020D2B22070201D8C
:102890000B4D0378EB5C1BB1001DFFF7DFFD02E081
:1028A0000C30FFF757FC08B1FEF734F860780028C9
:1028B00002D021780029FAD070BD00004C00002021
:1028C000000000202DE9F84F07462248914688462F
:1028D00005681E46012269461846FEF769F9DFF8C9
:1028E00078A060B3009800210446801C0AE000BF75
:1028F00000EA050259F821C00AEB8202401C491C7B
:10290000C2F80CC0B142F3D34FEA1749FEF70CFAF4
:10291000611C29400AEB810149EA00422C40CA604F
:102920000AEB8401C86867F3C50066F3891068F391
:102930009F2020F00300401C20F00400C8609AF89B
:10294000000001E0FEF738FF0028FBD1FEF7F8FA9F
:10295000BDE8F88F6C000020A404002070B50C4680
:1029600005464FF48E71FFF799F9216AA068415C22
:10297000206A401C2062C5F81C1570BD1FB50022DE
:102980008DF800200291816801914261D0E9001226
:10299000684690471FBD1FB500228DF800200291A8
:1029A000816801914261D0E90012684690471FBDDD
:1029B0000178022901D0012902D14068FDF7AABFA0
:1029C000704700007CB50178254DA1B301290BD0DB
:1029D00002291DD18DF80010C068691C01900122E8
:1029E000C81DFEF76DFC30E0017A59B140680178EE
:1029F0001C48FDF7B5FF1B4C012650B18DF8006057
:102A000001900DE016490122491CC81DFEF758FC33
:102A10007CBDA068E168814205D000208DF80000EF
:102A2000696868468847A068E168081AA1888842F2
:102A3000E8D9AE707CBDFFE70A4809491030FDF7C0
:102A400074FF30B103208DF800006968684688473C
:102A5000F0E70349012201F10800FEF741FCE9E734
:102A60002C000020840300201FB50A4601788DF851
:102A7000001041680191017A8DF80810C068039038
:102A8000044850F82210001F50F822206846904752
:102A90001FBD000008000020014901200870704798
:102AA0004C00002010B588B0044620220E4968462C
:102AB000FDF738FC06200090C01F019002900390A3
:102AC0004FF0EB7006900CB1084A00E00022694616
:102AD0000748FEF7C1FB08B1FDF71CFF0448001FC3
:102AE000447008B010BD00007C2E0000992A000040
:102AF000500000202DE9FF470C4605464FF40071B9
:102B0000FFF7D2F801274FF40178002618B34FF4ED
:102B1000927949462846FFF7BCF8E0B14946284675
:102B2000FFF7BCF8C5F8088394F8290000B96F6076
:102B300002208DF80000D5F88004C5F880040390C9
:102B4000A0690290E0680190A661E661D4E90012F4
:102B50006846904728E004212846FFF7A5F818B3F7
:102B60004FF484712846FFF794F8E8B121462846CF
:102B7000FFF748FE616AA069884215D1E06938B163
:102B8000E268616AA0612069E6616662E06008E06F
:102B900094F8290000B96F60C5F80883A661E2685F
:102BA000616A2046FFF747FE4FF48E78414628467B
:102BB000FFF76FF880B16069216A814202D294F810
:102BC000280028B341462846FFF768F8606918B125
:102BD00061692046FFF7D2FE4FF4A27841462846AD
:102BE000FFF757F8002818D041462846FFF756F857
:102BF00094F8290000B12F60A06900280DD0A661CB
:102C0000E268616A04B02046BDE8F047FFF713BEF2
:102C100021462846FFF7A2FEDEE7BDE8FF87000059
:102C20001FB50A4601788DF8001041680191017ABC
:102C30008DF80810C0680390044850F82210001F57
:102C400050F82220684690471FBD00000800002071
:102C50002DE9FF410C464FF4927705463946FFF7C0
:102C600029F80026B8B139462846FFF728F802208F
:102C70008DF80000D5F88004C5F880040390D5F8DD
:102C80003C050290E0680190A661E661D4E900127B
:102C90006846904723E04FF4887739462846FFF787
:102CA00009F8E0B139462846FFF709F8D5F83C1590
:102CB000A069884213D1E06960B1E268D5F80002EA
:102CC00020F02000C5F80002E069A0612069E661FB
:102CD000E06001E0A661E2682046FFF7B7FD4FF42F
:102CE000A27739462846FEF7E5FF68B139462846FF
:102CF000FEF7E5FFA06938B1A661E661D5F83C159D
:102D00002046E268FFF7A2FD4FF490763146284650
:102D1000FEF7D0FF60B131462846FEF7D0FF012014
:102D2000E860606920B1D5F84C152046FFF733FE06
:102D30004FF4AC7631462846FEF7BCFF00280ED093
:102D400031462846FEF7BBFF6069002807D0D5F85A
:102D50004C1504B02046BDE8F041FFF71CBEBDE8AD
:102D6000FF8100002DE9F05F8346DDE90A4A9946BC
:102D700090460D460846012703E000BFB0FBF8F07F
:102D80007F1C4045FAD2B94500D94F465FEACA7068
:102D900012D18CB15FEA8A7002D5B9F1000F01D06F
:102DA000202607E0302605E031465846641EFDF730
:102DB00045FF0CB1A742F7D35FF00106B9F1010F4F
:102DC00002D9A9F1010903E0B5FBF6F0404502D3B1
:102DD00006FB08F6F2E7DFF83C9000BFB5FBF6F023
:102DE00000FB165519F800105846FDF727FFB6FBF3
:102DF000F8F6002EF2D15FEACA7009D0002C07D095
:102E0000A74205D220215846641EFDF717FFF5E7BB
:102E1000BDE8F09F402E0000030001000800000004
:102E20000700000005000000060000000000000090
:102E300000E0D701851F0000DD22000000000050E7
:102E400030313233343536373839414243444546E0
:102E5000FFFFFFFFFFFFFFFFFFFFFFFFFFFFFFFF82
:102E600000000000000000000000D6010601000084
:102E7000711700004517000043170000FFFFFFFF18
:102E8000FFFFFFFFFFFFFFFFFFFFFFFF000000004E
:102E9000000000000000D601060100000040404094
:102EA000404040404040414141414140404040401D
:102EB00040404040404040404040404040050202C9
:102EC0000202020202020202020202020220202088
:102ED00020202020202020020202020202029090E4
:102EE00090909090101010101010101010101010E2
:102EF0001010101010101010020202020202888836
:102F00008888888808080808080808080808080841
:102F10000808080808080808020202024000000029
:102F20009D2E00007761726E696E67006465627540
:102F3000670000001B5B313B33306D001B5B306D65
:102F4000000000001B5B313B33316D001B5B313BEC
:102F500033326D001B5B313B33336D001B5B313B08
:102F600033346D001B5B313B33356D001B5B313BF4
:102F700033366D001B5B313B33376D00696E666F16
:102F8000000000006572726F720000005052530022
:102F90005541525400000000554152544500000074
:102FA000434F4D50000000004750494F544500002A
:102FB0005050490054494D455200000075617274EB
:102FC0005F6C6F675F6261636B656E640000000039
:102FD000617070005830000000000020C400000044
:102FE000500800001C310000C4000020042800002C
:102FF00060080000702E000000000000BC2F0000E0
:10300000640000208C2F000000000000902F0000C2
:1030100000000000982F000000000000A02F00001A
:1030200000000000A82F000000000000B02F0000EA
:1030300000000000B42F000000000000D02F0000AE
:1030400000000303780000207000002078000020BA
:10305000E403002018000000000000000000000051
:103060000000000000000000000000000000000060
:103070000000000000000000000000000000000050
:103080000000000000000000000000000000000040
:103090000020004000000000002000400000000070
:1030A00000000000000000000000000000200040C0
:1030B00000000000002000400000000000000000B0
:1030C000FF000000FF000000000000000000000002
:1030D00000000000000000000000000000000000F0
:1030E00000000000842F0000242F00007C2F00002F
:1030F0002C2F00003C2F0000342F0000442F000034
:103100004C2F0000542F00005C2F0000642F0000A3
:0C3110006C2F0000742F00000090D00312
:0400000500000201F4
:00000001FF
