:020000040000FA
:1000000030230020150200001D0200001F02000026
:100010002102000023020000250200000000000071
:1000200000000000000000000000000027020000A7
:1000300029020000000000002B0200002D02000039
:100040002F0200002F020000D10700002F02000045
:100050002F0200002F0200002F0200002F020000DC
:10006000E10500002F0200002F0200002F02000017
:100070002F0200002F0200002F0200002F020000BC
:100080002F0200002F0200002F0200002F020000AC
:100090002F0200002F0200002F0200002F0200009C
:1000A0002F0200002F0200002F0200002F0200008C
:1000B000810200002F02000000000000000000008C
:1000C0002F02000091020000A10200002F02000098
:1000D0002F0200002F0200002F020000000000008D
:1000E0000000000000000000000000000000000010
:1000F0000000000000000000000000000000000000
:1001000000000000000000000000000000000000EF
:1001100000000000000000000000000000000000DF
:1001200000000000000000000000000000000000CF
:1001300000000000000000000000000000000000BF
:1001400000000000000000000000000000000000AF
:10015000000000000000000000000000000000009F
:10016000000000000000000000000000000000008F
:10017000000000000000000000000000000000007F
:10018000000000000000000000000000000000006F
:10019000000000000000000000000000000000005F
:1001A000000000000000000000000000000000004F
:1001B000000000000000000000000000000000003F
:1001C000000000000000000000000000000000002F
:1001D000000000000000000000000000000000001F
:1001E000000000000000000000000000000000000F
:1001F00000000000000000000000000000000000FF
:10020000DFF80CD000F02AF800480047B90C0000D5
:10021000302300200648804706480047FEE7FEE7F7
:10022000FEE7FEE7FEE7FEE7FEE7FEE7FEE7FEE7A6
:10023000090300000102000040EA01039B0703D00C
:1002400009E008C9121F08C0042AFAD203E011F815
:10025000013B00F8013B521EF9D27047064C074D96
:1002600006E0E06840F0010394E807009847103486
:10027000AC42F6D3FFF7C8FFFC1A00001C1B0000BD
:100280000149024800F0CABCF802002000C0014049
:100290000149024800F0C2BC0003002000100240E7
:1002A0000149024800F0BABC0803002000200240C7
:1002B00010B51149114B124A01280FD002280CD158
:1002C000886803EBC00302EB80001C68CC635B68AA
:1002D0000B6440680B49401E086010BD8868801C94
:1002E00003EBC00388601C684C635B688B63054943
:1002F00052F820002039EEE700000020BC1A000070
:100300005400002048150240F0B5A449A4484FF01D
:1003100080540B68D4F830210078D4F83411551C7F
:10032000C0F3031006D0944601270026BCF1060F47
:1003300003D00AE003F0FF0CF6E7B4F82453DFF82B
:1003400064C2C5F30425CCF80050DDB2062D06D1F9
:10035000032804D1DFF854C2934DCCF87450551CD7
:1003600004D09446BCF1060F03D00AE003F0FF0C62
:10037000F8E7D4F84452DFF838C2C5F34235CCF878
:100380000050DDB2062D08D1032806D1894DD5F8DD
:1003900000C02CF0807CC5F800C0551C04D09446E9
:1003A000BCF1060F03D00BE003F0FF0CF8E74FF0B1
:1003B0008045C5F80C61C5F810617D4D2D1F2E607C
:1003C000DDB2062D08D1032806D1DFF8E4C10325EC
:1003D0000CF1640CCCF80050DDB2062D10D10328CE
:1003E0000ED1DFF8D4C10525CCF80050724D783518
:1003F0002F60714D08352E600CF104063F253560E5
:10040000551C04D016460D46062E03D05BE0DEB226
:100410000546F9E7ED1E012D55D9684D2D68684E4A
:100420003560664D2D1D2D68361D3560634D0835D0
:100430002D68361D3560614D0C352D68361D3560D3
:100440005E4D10352D68361D35605C4D14352D68B8
:10045000361D3560594D18352D68594E203635609A
:10046000564D1C352D68361D3560544D20352D6890
:10047000361D3560514D24352D68361D35604F4D84
:1004800028352D68361D35604C4D2C352D68361DB0
:1004900035604A4D30352D68494E40363560474D00
:1004A00034352D68361D3560444D38352D68361D80
:1004B0003560424D3C352D68361D35603F4D403529
:1004C0002D68361D3560551C03D01646062E02D009
:1004D00007E0DEB2FAE7D4F858523A4E05F04F057D
:1004E0003560551C03D01346062B02D008E0DBB262
:1004F000FAE735480368DB0702D06FF001030360B9
:10050000062A07D1C91E022904D93048016841F4DE
:100510008061016027487438016841F4700101600E
:10052000BFF34F8FBFF36F8FD4E94C104FF0102201
:10053000062907D1C01E032804D9D2F808021C4995
:100540001C310860D2F80002002803DBD2F8040254
:1005500000281FDA012001F017F81521C2F8001257
:100560001B480368002BFCD0C2F804120168002964
:10057000FCD0002001F008F8BFF34F8F0D48F03891
:100580000168144A01F4E06111430160BFF34F8F29
:1005900000BFFDE7114910480860F0BDE00F00F012
:1005A000E80F00F0403501400DF0ADBA00C0074043
:1005B0003C050040FCED00E0105600400404001033
:1005C00020C50040E40E0040000400403C170040FD
:1005D00000E401400400FA050090D00398000020D8
:1005E0002DE9F047104E042700244FF4A0784FF473
:1005F000803900BF08EB840509FA04F0715961B134
:10060000D6F80413014208D02946304600F050FCC9
:100610000648D0E9002128469047641CE4B2BC4259
:10062000E8D3BDE8F087000000800040EC02002025
:1006300010B51149114B124A01280FD002280CD1D4
:10064000486803EBC00302EB80009C68CC62DB6867
:100650000B6340680B49401E086010BD4868801C51
:1006600003EBC00348601C684C625B688B62054901
:1006700052F820002039EEE7000000209C1A00000C
:100680004400002048C50140F0B54A4C484899B0A4
:1006900062680AAF00EBC200016861624168A16252
:1006A0008168E162C06820634348A16800EBC10033
:1006B000036863634368A3638368E363C06820647B
:1006C0003E4868C887E8680068C80DAF87E86800DA
:1006D000C66870E80635CDE90235394B059653F802
:1006E000225003EB82026D1E0495D0E90A56476B37
:1006F000CDE9065609975268521E0892D0E90E239A
:10070000456CCDE910232F4A139552F821305B1E1A
:100710001293D0E91235406D1790CDE9143502EBF4
:1007200081004068401E16902078C00703D004F175
:100730000C0000F099FC2078800703D51D48143088
:1007400000F092FC2078400703D51A481C3000F0D6
:100750008BFC0020207017481B4A0AA90C3000F0BF
:1007600017FC08B100F07AF81248184A0DA91430A5
:1007700000F00EFC08B100F071F820788D2540F0F3
:10078000030020700B48042306AA02A90C30009530
:1007900000F0D0FB04460748032314AA10A9143024
:1007A000009500F0C7FB01212160016019B0F0BD88
:1007B0009C1A000000000020BC1A00002C1A000047
:1007C000440000205400002031060000B102000067
:1007D00001480068004700006C000020014A0249FF
:1007E00000F013B8850B00009400002002E008C858
:1007F000121F08C1002AFAD170477047002001E09B
:1008000001C1121F002AFBD170472DE9F0411646A5
:100810000F460446002503E03946B047641C6D1CB2
:1008200020780028F8D12846BDE8F08172B6094842
:100830000068C00700D000BEBFF34F8F0548E43802
:100840000168054A01F4E06111430160BFF34F8F75
:1008500000BFFDE7F0ED00E00400FA050EB5002151
:100860000091CDE901106A4644F20100FFF7DEFF76
:100870000EBD10B58268C368934203D000F06FF9D3
:10088000002010BD052010BD29B112B1531E134226
:1008900003D0092070470E2070470160838000213B
:1008A0008160C1600846704710B58268C3689A1AB3
:1008B00083889A4203D800F05CF9002010BD042020
:1008C00010BD0000F0B5244E89B01F460D0004464F
:1008D00072603FD0A888296882B22048FFF7D4FF11
:1008E000002835D1A889A96882B21C481030FFF7CA
:1008F000CBFF00282CD1202219496846FFF79CFC29
:1009000060690690207C00B101208DF814008DF8FC
:100910001C70607C00B10E208DF81500E06802901C
:10092000A068039020680190606800900A480D4A12
:100930006946083000F002FA002809D1B07020683A
:10094000401C05D004490122491CC81D00F02AFAA8
:1009500009B0F0BD0720FBE7740000201003002061
:10096000DC1A0000E916000010B501461048FFF738
:100970009BFF040019D10F480F4A0178515C19B14F
:10098000001D00F0F3FD02E00C3000F0C9FC60B97E
:10099000084907480839FFF76CFF30B905490122BB
:1009A0000839044800F00EFA0446204610BD000045
:1009B000200300207C0000206000002000F002B82E
:1009C00000F008B872B602480168491C016070471F
:1009D0009000002003490868401E086000D162B6FC
:1009E00070470000900000202DE9F041064608689D
:1009F0000C46411C4FF0A0474FF0010506D005FA08
:100A000000F1C7F80815206800F022FA6068411C60
:100A100002D0002100F00AFA3168A069C1F824056B
:100A2000607D227D31681043C1F86C05D4E9001265
:100A30003068C0F81425C0F80C15207D012815D1A8
:100A4000A068411C02D0002100F0F0F9E068411CD0
:100A500005D08540C7F80855E06800F0F9F9D4E9F9
:100A600002123068C0F80825C0F81015BDE8F08102
:100A70002DE9F041064608680C46411C4FF0A0479E
:100A80004FF0010506D005FA00F1C7F808152068F7
:100A900000F0E9F96068411C02D0002100F0CFF9B4
:100AA0003168A069C1F82405607D217D3268084362
:100AB000C2F86C05D4E900123068C0F80C15C0F813
:100AC0001425207D012815D1A068411C02D00021E9
:100AD00000F0B5F9E068411C05D08540C7F808551D
:100AE000E06800F0C0F9D4E902123068C0F80825C7
:100AF000C0F81015BDE8F081FFB5002301244FF0C8
:100B0000A0456E46CA5CFF2A13D0D70922F08002A6
:100B100046F8232004FA02F702D0C5F8087501E070
:100B2000C5F80C7505EB820240F20327C2F8007786
:100B300003E04FF0FF3246F823205B1CDBB2042BAE
:100B4000E0D301683246002001EB800452F82030E7
:100B5000C4F86035401CC0B20428F5D3FFBD8268DC
:100B600083881A4003689A5C0A708168491C816016
:100B70007047C26883881A4003689954C168491C49
:100B8000C160704710B50446C0B2FFF7EDFE2046C5
:100B900010BD000070B50D46044600684FF4887122
:100BA00000F0A2F94FF49071206800F09DF94FF425
:100BB0009271206800F098F94FF4A271206800F05B
:100BC00093F94FF4AC71206800F08EF92068124957
:100BD000C0F804132068690740F30730090E0028A5
:100BE00004DB00F1E02080F8001405E000F00F00C5
:100BF00000F1E02080F8141D206840F30730002841
:100C000009DB00F01F02012191404009800000F142
:100C1000E020C0F8001170BD1003420070B50C4612
:100C20004FF488760546314600F028F950B1314638
:100C3000284600F028F96079400703D5216809B1FA
:100C4000012088474FF48A763146284600F016F98D
:100C500050B13146284600F016F96079000703D5F7
:100C6000216809B1022088474FF48E763146284624
:100C700000F004F950B13146284600F004F96079DB
:100C8000C00603D4216809B1002088474FF482765A
:100C90003146284600F0F2F800280CD031462846AC
:100CA00000F0F1F8012020712168002903D0BDE88F
:100CB00070400320084770BD4FF080408AB000218B
:100CC000C0F8001101210160D0F800110029FBD00B
:100CD00018220F496846FFF7AFFA0E4806900E49F2
:100CE0004FF48070CDE90701099007230B4A06A94C
:100CF0006846FFF7E7FD08B1FFF7B0FD08A0FFF772
:100D00006DFDFFF7C1FC20BF40BF20BFFBE7000027
:100D1000841A00009C0000209C010020D7160000CF
:100D20000D0A4D5050206578616D706C65207374AC
:100D300061727465642E0D0A00000000F0B505466E
:100D40000478154889B0164640F82420124A0869EC
:100D5000121DA2F1080742F82400487F38552022CE
:100D60006846FFF769FA04942878385C48B10EB1F8
:100D70000A4A00E000226946281D00F0E9FA09B09D
:100D8000F0BD0EB1064A00E00022694605F10C00F4
:100D900000F092F9F3E7000064000020E918000079
:100DA0008D17000030B40378054CE35C1BB130BCF8
:100DB000001D00F003BB30BC0C3000F0E7B90000B0
:100DC0006000002030B40378054CE35C1BB130BCFC
:100DD000001D00F075BB30BC0C3000F04DBA0000B7
:100DE0006000002070B541EA4201DDE904564FF091
:100DF000A04441EA830141EA052104EB800041EA75
:100E00000641C0F8001770BD70B541EA4201DDE946
:100E100004564FF0A04441EA830141EA052104EB66
:100E2000800041EA0641C0F8001770BD1CB50022E1
:100E30000B46009211460192FFF7D4FF1CBD1CB572
:100E400000220B46009211460192FFF7DDFF1CBD08
:100E50001CB500220221CDE90012134601221146E1
:100E6000FFF7C0FF1CBD1CB500220221CDE9001216
:100E7000134601221146FFF7C7FF1CBD405800284A
:100E800000D00120704708B5002242504058009021
:100E900008BD00EB41101368C0F820359188C0F8F8
:100EA00024159168C0F82815D168C0F82C15704732
:100EB00008B5002242504058009008BD4058002814
:100EC00000D00120704708B50022425040580090E1
:100ED00008BDD0F80403084000D0012070474058F6
:100EE000002800D00120704708B500224250405829
:100EF000009008BD0121B1EB507F01D10120704766
:100F00000020704770B50D4600F04AFB04000FD07A
:100F10000020FFF753FD207920B10020FFF750FD9E
:100F2000112070BD0120256020710020FFF748FDD1
:100F3000002070BD2DE9F041904604460079134A27
:100F40001F4602EBC0060A46069D00212068FFF7F7
:100F5000A0FF424601212068FFF79BFF2068C0F8F0
:100F60001475E80701D0102004E0A80701D504207B
:100F700000E000202168C1F80002EAB231462046B4
:100F8000BDE8F041082300F056BB0000F802002045
:100F90002DE9F0410D4604460079324901EBC006C7
:100FA000307910B10820BDE8F08129462046326032
:100FB000FFF7A2FD20680127C0F8007520686B7953
:100FC000AA792989C0F80C35C0F80425C0F808159D
:100FD000AA7AE97A206842EA0121C0F8101520684F
:100FE0000021C0F800122068C0F800134FF48E7181
:100FF0002068FFF748FF4FF488712068FFF743FF30
:101000004FF48A712068FFF73EFF4FF48271206829
:10101000FFF739FF306808B32068297940F30730BB
:1010200000284FEA411104DB00F1E02080F80014B1
:1010300005E000F00F0000F1E02080F8141D2068AA
:1010400040F30730002809DB00F01F0107FA01F127
:101050004009800000F1E020C0F800113771002045
:10106000A1E70000F802002010B501790D4A02EB5B
:10107000C102016841F3073100290DDB01F01F04B3
:101080000123A3404909890001F1E021C1F8803121
:10109000BFF34F8FBFF36F8F00680021C0F80015BA
:1010A000117110BDF80200200149024800F086BB12
:1010B0009C020020002000402DE9F0410546007907
:1010C00016460F4600EB40012D4A01EBC00102EB32
:1010D000810494F82A1011B10820BDE8F081294953
:1010E00051F820102868FFF70DFF08B11120F4E730
:1010F00039462846FFF778FC666038692060300082
:101100004FF001062FD03F7F4FF48E712868FFF714
:10111000DAFE4FF4A2712868FFF7D5FE28681A4955
:10112000C0F8041328684FEA471140F3073000283D
:1011300004DB00F1E02080F8001405E000F00F006F
:1011400000F1E02080F8141D286840F307300028E3
:1011500009DB00F01F0106FA01F14009800000F1EF
:10116000E020C0F8001128680421C0F80015002014
:10117000A061E06184F8290044F8140FA675ACE77B
:101180009C020020D41A0000800002002DE9F05FCC
:10119000054600794FF4017600EB400303EBC000F5
:1011A000344B03EB80040020636813B12B68C3F851
:1011B0000863A3694FF000096BB1E06938B160685A
:1011C00010B12868C0F804631120BDE8F09FE26107
:1011D0000120216105E0C4F82490A261E160C4F817
:1011E0001C9094F82910014302D1284600F013FA0C
:1011F00060680028286803D0C0F804630020E4E792
:101200004FF4A2763146FFF75EFEB2464FF4927B72
:1012100059462868FFF752FE06464FF48471286845
:10122000FFF74CFE804651462868FFF747FE074609
:1012300048EA07003043EBD056EA070007D12146C1
:10124000286800F0B9F9A169606A8142E0D8C4F861
:1012500018900EB10320B8E70FB10F20B5E794F84E
:10126000291001200029296801D00860C6E74860DC
:10127000C4E700009C0200202DE9F05F05460079DC
:101280000B4600EB400101EBC000244901EB800458
:10129000284600F045F810B11120BDE8F09F6261CA
:1012A0004FF00009C4F82090A36084F828904FF410
:1012B0008E784E4641462868FFF705FE28684FF0B5
:1012C000010AC0F808A02146286800F0DAF9606831
:1012D00008BBD5F800B067690FE000BF94F828009C
:1012E00008B10F2615E041465846FFF7E7FD0028F4
:1012F000F4D02146584600F0C4F9206AB842F2D32F
:10130000574641462868FFF7D9FD0028F9D02868DC
:10131000C760C4F814903046BFE700009C0200206C
:10132000007900EB400101EBC000044901EB8000B3
:101330004069002800D00120704700009C02002076
:101340000149024800F0E8BAC8020020002000402D
:101350002DE9F0410546164600790F46154A00EB87
:10136000C00102EB810494F8201011B10820BDE8FF
:10137000F081114951F820102868FFF7C3FD08B12A
:101380001120F4E739462846FFF772FB666038699A
:1013900020601EB1397F2846FFF7FCFB2868082132
:1013A000C0F800150020A061E0616061012184F8AF
:1013B0002010DCE7C8020020D81A00002DE9F05FF9
:1013C000044600790E4600EBC001DFF8F0A0174696
:1013D0000AEB81053046FFF78DFDB0B168684FF02C
:1013E00000084FF4047910B12168C1F80893A86986
:1013F0004FF0000B80B1E86948B1686810B120680F
:10140000C0F804931120BDE8F09F1020FBE7EF61C6
:101410004FF001082E6102E0EE60C5E9067B002571
:101420004FF488712068FFF75FFD4FF4A2712068C8
:10143000FFF75AFD2068C0F83465C0F83875206899
:10144000B8F1000F12D0D0F8001241F02001C0F81E
:1014500000122079D04600EBC0010AEB8100406801
:1014600038B12068C0F804932846CCE70121016018
:10147000EFE74FF4887A4FF4A27951462068FFF7DE
:101480002EFD074649462068FFF729FD06464FF422
:1014900092712068FFF723FD014647EA06000843E2
:1014A000EBD0227902EBC20308EB8302C2F818B03A
:1014B00001B10325002ED7D00F25D5E7C8020020A3
:1014C0002DE9F04704460E460079274900EBC0009D
:1014D00001EB800517463046FFF70CFD30B1204682
:1014E00000F044F820B11120BDE8F0871020FBE7A0
:1014F0006F61AE604FF490774FF000083946206876
:10150000FFF7F2FC4FF4AC7631462068FFF7ECFCB5
:101510002068AA686969C0F84425C0F848152068A1
:101520004FF00109C0F808906868D0B9BA46514632
:101530002068FFF7D4FC074631462068FFF7CFFC50
:101540000743F4D010B14FF00F0808E02068C0F84E
:101550000C9031462068FFF7C2FC0028F9D000202B
:1015600068614046C0E70000C802002000790549D4
:1015700000EBC00001EB80004069002800D0012092
:1015800070470000C8020020034908600348016852
:101590000029FCD07047000004E5014000E4014050
:1015A0000349884201D1034870470020704700007A
:1015B000002000406C00002070B5054688690C468C
:1015C00000284FF4847128460AD0FFF77CFCD5F838
:1015D0001805626AE1688854606A401C606270BDE8
:1015E000FFF771FCD5F8180570BD1FB501238DF804
:1015F0000030CDE90121D0E90012684690471FBDB7
:101600001FB501238DF80030CDE90121D0E900128A
:10161000684690471FBD10B5044600684FF49271AC
:10162000FFF751FC4FF484712068FFF74CFC2068F1
:101630000121016010BD70B5054602201E4614460A
:1016400008714A71086870B18221600700D5922143
:10165000200701D541F02001E00601D521F08001ED
:101660002868C0F800134FF482712868FFF70BFC5C
:101670002006286801D5304470BD01218151002029
:1016800070BD70B50C4605464FF48E71FFF71BFC1C
:10169000216AA068415C206A401C2062C5F81C15C4
:1016A00070BD1FB500228DF8002002918168019164
:1016B0004261D0E90012684690471FBD1FB5002265
:1016C0008DF800200291816801914261D0E90012F9
:1016D000684690471FBD0178022901D0012902D137
:1016E0004068FFF7BBB870477CB50178254DA1B3C2
:1016F00001290BD002291DD18DF80010C068691C8A
:1017000001900122C81DFFF74DFB30E0017A59B16D
:10171000406801781C48FFF7C7F81B4C012650B100
:101720008DF8006001900DE016490122491CC81D8A
:10173000FFF738FB7CBDA068E168814205D000203E
:101740008DF80000696868468847A068E168081A53
:10175000A1888842E8D9AE707CBDFFE70A480949F4
:101760001030FFF786F830B103208DF8000069686B
:1017700068468847F0E70349012201F10800FFF7B6
:1017800021FBE9E774000020100300201FB50A4682
:1017900001788DF8001041680191017A8DF80810E8
:1017A000C0680390044850F82210001F50F822200F
:1017B000684690471FBD0000680000202DE9FF47E4
:1017C0000C4605464FF40071FFF783FB01274FF4E9
:1017D0000178002618B34FF4927949462846FFF75E
:1017E0006DFBE0B149462846FFF76DFBC5F808835D
:1017F00094F8290000B96F6002208DF80000D5F838
:101800008004C5F880040390A0690290E06801900C
:10181000A661E661D4E900126846904728E00421F9
:101820002846FFF756FB18B34FF484712846FFF79C
:1018300045FBE8B121462846FFF7BEFE616AA06974
:10184000884215D1E06938B1E268616AA061206917
:10185000E6616662E06008E094F8290000B96F6014
:10186000C5F80883A661E268616A2046FFF7BDFEFD
:101870004FF48E7841462846FFF720FB80B160691F
:10188000216A814202D294F8280028B341462846B2
:10189000FFF719FB606918B161692046FFF701FF86
:1018A0004FF4A27841462846FFF708FB002818D0DD
:1018B00041462846FFF707FB94F8290000B12F6046
:1018C000A06900280DD0A661E268616A04B02046D4
:1018D000BDE8F047FFF789BE21462846FFF7D1FE55
:1018E000DEE7BDE8FF8700001FB50A4601788DF8E6
:1018F000001041680191017A8DF80810C0680390CA
:10190000044850F82210001F50F8222068469047E3
:101910001FBD0000680000202DE9FF410C464FF478
:10192000927705463946FFF7DAFA0026B8B139460C
:101930002846FFF7D9FA02208DF80000D5F8800478
:10194000C5F880040390D5F83C050290E06801904A
:10195000A661E661D4E900126846904723E04FF49F
:10196000887739462846FFF7BAFAE0B13946284663
:10197000FFF7BAFAD5F83C15A069884213D1E0699F
:1019800060B1E268D5F8000220F02000C5F800023E
:10199000E069A0612069E661E06001E0A661E268BB
:1019A0002046FFF72DFE4FF4A27739462846FFF771
:1019B00096FA68B139462846FFF796FAA06938B119
:1019C000A661E661D5F83C152046E268FFF718FEEF
:1019D0004FF4907631462846FFF781FA60B13146E0
:1019E0002846FFF781FA0120E860606920B1D5F848
:1019F0004C152046FFF762FE4FF4AC763146284680
:101A0000FFF76DFA00280ED031462846FFF76CFA32
:101A10006069002807D0D5F84C1504B02046BDE811
:101A2000F041FFF74BBEBDE8FF8100008EFFFFFFD6
:101A300007000000000003008DFFFFFF070000000B
:101A4000000003002400002004000000000000004B
:101A5000000000002C000020040000000000000036
:101A6000000000003400002004000000000000001E
:101A7000000000003C000020040000000000000006
:101A80000000000008000000070000000500000042
:101A9000060000000000000000E0D70140810000C7
:101AA000000080020080000000001000C8800000DC
:101AB0000000900100800000000040062D80000022
:101AC00000005B00008000000000A00030800000EB
:101AD00000006000A910000041130000FFFFFFFF9D
:101AE000FFFFFFFFFFFFFFFFFFFFFFFF0000000002
:101AF000000000000000D601060100001C1B0000D1
:101B0000000000209C000000EC070000B81B000053
:101B10009C00002094220000FC0700000000000050
:101B2000000000000000000000C0014000000000B4
:101B300000100240010000000020024002000000EE
:101B40000000000000000000000000000000000095
:101B50000000000000000000000000000000000085
:101B6000200000003D00000028000000720000007E
:101B70001900000001000000180000000000000033
:101B80000000000000000000000000000000000055
:101B900000000000000000000000000000200040E5
:101BA00000000000002000400000000000000000D5
:081BB000000000000090D003CA
:0400000500000201F4
:00000001FF
