:020000040000FA
:10000000B0120020190200002102000023020000AB
:100010002502000027020000290200000000000065
:100020000000000000000000000000002B020000A3
:100030002D020000000000002F020000310200002D
:1000400033020000330200001904000033020000F4
:100050003302000000000000330200000000000036
:1000600033020000330200003302000033020000BC
:1000700033020000330200003302000033020000AC
:10008000330200003302000033020000330200009C
:10009000330200003302000033020000330200008C
:1000A00033020000330200003302000000000000B1
:1000B0000000000000000000000000000000000040
:1000C0000000000000000000000000000000000030
:1000D00000000000000000000000000033020000EB
:1000E0000000000000000000000000000000000010
:1000F0000000000000000000000000000000000000
:1001000000000000000000000000000000000000EF
:1001100000000000000000000000000000000000DF
:1001200000000000000000000000000000000000CF
:1001300000000000000000000000000000000000BF
:1001400000000000000000000000000000000000AF
:10015000000000000000000000000000000000009F
:10016000000000000000000000000000000000008F
:10017000000000000000000000000000000000007F
:10018000000000000000000000000000000000006F
:10019000000000000000000000000000000000005F
:1001A000000000000000000000000000000000004F
:1001B000000000000000000000000000000000003F
:1001C000000000000000000000000000000000002F
:1001D000000000000000000000000000000000001F
:1001E000000000000000000000000000000000000F
:1001F00000000000000000000000000000000000FF
:10020000DFF810D000F02CF800480047A9080000E3
:10021000AFF30080B0120020064880470648004730
:10022000FEE7FEE7FEE7FEE7FEE7FEE7FEE7FEE7A6
:10023000FEE7FEE7850200000102000040EA01033C
:100240009B0703D009E008C9121F08C0042AFAD28C
:1002500003E011F8013B00F8013B521EF9D2704750
:10026000064C074D06E0E06840F0010394E8070003
:1002700098471034AC42F6D3FFF7C6FFB414000021
:10028000D414000000B54FF080500022D0E94C108B
:100290000D2901D0102907D14FF08043C3F80C215C
:1002A000C3F81021534B1A600D2901D0102955D1E4
:1002B000514A1268514B1A604F4A121D12681B1D99
:1002C0001A604D4A083212681B1D1A604A4A0C32E5
:1002D00012681B1D1A60484A103212681B1D1A60F2
:1002E000454A143212681B1D1A60434A18321268BC
:1002F000424B20331A60404A1C3212681B1D1A60A0
:100300003D4A203212681B1D1A603B4A2432126893
:100310001B1D1A60384A283212681B1D1A60364AA3
:100320002C3212681B1D1A60334A30321268334B6C
:1003300040331A60304A343212681B1D1A602E4A4C
:10034000383212681B1D1A602B4A3C3212681B1D82
:100350001A60294A403212681B1D1A600D2901D00B
:10036000102906D1264A1368DB0702D06FF001037B
:1003700013604FF010220D2902D0102904D00DE097
:1003800060B1012805D109E040B1012806D002285A
:1003900004D0D2F80802174920310860D2F80002D0
:1003A000002803DBD2F8040200281EDA012000F046
:1003B00031FE1221C2F8001212480368002BFCD053
:1003C000C2F8041201680029FCD0002000F022FECF
:1003D000BFF34F8F0C4801680C4A01F4E0611143F0
:1003E0000160BFF34F8F00BFFDE70A49084808606E
:1003F00000BD0000380500400404001020C5004086
:100400000004004000E401400CED00E00400FA05A7
:100410000090D00338000020014800680047000029
:100420000C000020014A024900F013B81108000036
:100430003400002002E008C8121F08C1002AFAD1C7
:1004400070477047002001E001C1121F002AFBD154
:1004500070472DE9F04116460F460446002503E09B
:100460003946B047641C6D1C20780028F8D1284616
:10047000BDE8F08172B609480068C00700D000BE30
:10048000BFF34F8F0548E4380168054A01F4E06185
:1004900011430160BFF34F8F00BFFDE7F0ED00E0B7
:1004A0000400FA050EB500210091CDE901106A465D
:1004B00044F20100FFF7DEFF0EBD10B58268C3688D
:1004C000934203D000F091F9002010BD052010BD2B
:1004D00029B112B1531E134203D0092070470E20D8
:1004E00070470160838000218160C16008467047C9
:1004F00010B58268C3689A1A83889A4203D800F0BC
:100500007EF9002010BD042010BD000070B50A4E19
:1005100001460A48B578FFF7D0FF04464DB10020E8
:10052000B070711C0122C81D00F040FA08B1FFF73D
:10053000B9FF204670BD0000140000208C0200208E
:10054000F0B5244E89B01F460D00044672603FD0BE
:10055000A888296882B22048FFF7BAFF002835D161
:10056000A889A96882B21C481030FFF7B1FF0028A3
:100570002CD1202219496846FFF760FE6069069079
:10058000207C00B101208DF814008DF81C70607C77
:1005900000B10E208DF81500E0680290A06803906D
:1005A00020680190606800900A480D4A694608304A
:1005B00000F0C8F9002809D1B0702068401C05D0AF
:1005C00004490122491CC81D00F0F0F909B0F0BD32
:1005D0000720FBE7140000208C0200209414000088
:1005E0002911000010B501461048FFF781FF0400F3
:1005F00019D10F480F4A0178515C19B1001D00F064
:10060000FBFC02E00C3000F0D1FB60B90849074860
:100610000839FFF752FF30B905490122083904486B
:1006200000F0D4F90446204610BD00009C020020D2
:100630001C0000200000002000F002B800F008B804
:1006400072B602480168491C016070473000002002
:1006500003490868401E086000D162B67047000078
:10066000300000202DE9F041064608680C46411C88
:100670004FF0A0474FF0010506D005FA00F1C7F88A
:100680000815206800F0FAF96068411C02D00021CA
:1006900000F0E2F93168A069C1F82405607D227D8F
:1006A00031681043C1F86C05D4E900123068C0F815
:1006B0001425C0F80C15207D012815D1A068411C17
:1006C00002D0002100F0C8F9E068411C05D0854047
:1006D000C7F80855E06800F0D1F9D4E90212306893
:1006E000C0F80825C0F81015BDE8F0812DE9F041EB
:1006F000064608680C46411C4FF0A0474FF0010524
:1007000006D005FA00F1C7F80815206800F0C0F916
:100710006068411C02D0002100F0A7F93168A0698F
:10072000C1F82405607D217D32680843C2F86C055C
:10073000D4E900123068C0F80C15C0F81425207DEB
:10074000012815D1A068411C02D0002100F08DF9CC
:10075000E068411C05D08540C7F80855E06800F006
:1007600097F9D4E902123068C0F80825C0F81015CE
:10077000BDE8F0812DE9FC410646C0074FF00005B9
:100780000ED0104F00240122385D00950023114641
:10079000019500F02BF9641C042CF4D300F01CF834
:1007A000B0070DD5074E0024361D0022305D03230F
:1007B00000951146019500F019F9641C042CF4D33E
:1007C000BDE8FC81841400000249085C012100F0AE
:1007D00069B900008414000010B500242046FFF71A
:1007E000F3FF641C042CF9D310BD826883881A407F
:1007F00003689A5C0A708168491C81607047C2680E
:1008000083881A4003689954C168491CC1607047C5
:1008100010B50446C0B2FFF7E5FE204610BD00004B
:1008200070B50D46044600684FF4887100F05BF91E
:100830004FF49071206800F056F94FF492712068DF
:1008400000F051F94FF4A271206800F04CF94FF418
:10085000AC71206800F047F920681249C0F8041311
:100860002068690740F30730090E002804DB00F117
:10087000E02080F8001405E000F00F0000F1E02017
:1008800080F8141D206840F30730002809DB00F0D1
:100890001F02012191404009800000F1E020C0F8D2
:1008A000001170BD100342008AB00120FFF762FF03
:1008B000182216496846FFF7C1FC154806901549ED
:1008C0004FF48070CDE9070109900723124A06A969
:1008D0006846FFF735FE08B1FFF7E4FD0FA0FFF70C
:1008E000A1FD06A8FFF712FE0028FAD19DF8180016
:1008F000FFF778FE0028F9D19DF81800712801D083
:100900005128EED10CA0FFF78DFDFEE76C1400001E
:100910003C0000203C010020171100000D0A554149
:100920005254206578616D706C65207374617274C7
:1009300065642E0D0A000000200D0A4578697421B7
:100940000D0A0000F0B505460478154889B0164632
:1009500040F82420124A0869121DA2F1080742F843
:100960002400487F385520226846FFF767FC04942E
:100970002878385C48B10EB10A4A00E00022694686
:10098000281D00F02BFA09B0F0BD0EB1064A00E0B8
:100990000022694605F10C0000F0D4F8F3E70000EE
:1009A0000400002029130000CD11000030B40378AA
:1009B000054CE35C1BB130BC001D00F045BA30BCF7
:1009C0000C3000F029B900000000002030B403789A
:1009D000054CE35C1BB130BC001D00F0B7BA30BC65
:1009E0000C3000F08FB900000000002070B541EA23
:1009F0004201DDE904564FF0A04441EA830141EA97
:100A0000052104EB800041EA0641C0F8001770BDE3
:100A100070B541EA4201DDE904564FF0A04441EAD5
:100A2000830141EA052104EB800041EA0641C0F858
:100A3000001770BD70B541EA4201DDE904564FF080
:100A4000A04441EA830141EA052104EB800041EA28
:100A50000641C0F8001770BD1CB500220B4600927D
:100A600011460192FFF7D4FF1CBD1CB500220B46B6
:100A7000009211460192FFF7DDFF1CBD1CB500215D
:100A800000910B46012201911146FFF7C1FF1CBDE9
:100A90001CB5002100910B46012201911146FFF780
:100AA000C9FF1CBD01224FF0A043824011B1C3F821
:100AB00008257047C3F80C2570474058002800D01F
:100AC0000120704708B5002242504058009008BDF0
:100AD000D0F80403084000D0012070474058002897
:100AE00000D00120704708B50022425040580090C5
:100AF00008BD0121B1EB507F01D1012070470020DA
:100B0000704770B50D4600F091FA04000FD0002038
:100B1000FFF792FD207920B10020FFF78FFD112013
:100B200070BD0120256020710020FFF787FD0020A7
:100B300070BD00000149024800F060BB3C0200208B
:100B4000002000402DE9F0410546007916460F4689
:100B500000EB40012D4A01EBC00102EB810494F847
:100B60002A1011B10820BDE8F081294951F8201060
:100B70002868FFF7C6FF08B11120F4E73946284678
:100B8000FFF770FD66603869206030004FF00106A5
:100B90002FD03F7F4FF48E712868FFF793FF4FF4FB
:100BA000A2712868FFF78EFF28681A49C0F804135D
:100BB00028684FEA471140F30730002804DB00F1B2
:100BC000E02080F8001405E000F00F0000F1E020C4
:100BD00080F8141D286840F30730002809DB00F076
:100BE0001F0106FA01F14009800000F1E020C0F881
:100BF000001128680421C0F800150020A061E06100
:100C000084F8290044F8140FA675ACE73C020020D4
:100C10008C140000800002002DE9F05F0546007989
:100C20004FF4017600EB400303EBC000344B03EBC1
:100C300080040020636813B12B68C3F80863A369BC
:100C40004FF000096BB1E06938B1606810B12868F5
:100C5000C0F804631120BDE8F09FE261012021612A
:100C600005E0C4F82490A261E160C4F81C9094F8F7
:100C70002910014302D1284600F013FA60680028C9
:100C8000286803D0C0F804630020E4E74FF4A2769C
:100C90003146FFF717FFB2464FF4927B594628685A
:100CA000FFF70BFF06464FF484712868FFF705FF36
:100CB000804651462868FFF700FF074648EA0700CC
:100CC0003043EBD056EA070007D12146286800F0F0
:100CD000B9F9A169606A8142E0D8C4F818900EB1F0
:100CE0000320B8E70FB10F20B5E794F829100120D1
:100CF0000029296801D00860C6E74860C4E7000001
:100D00003C0200202DE9F05F054600790B4600EB20
:100D1000400101EBC000244901EB8004284600F0AB
:100D200045F810B11120BDE8F09F62614FF0000955
:100D3000C4F82090A36084F828904FF48E784E4633
:100D400041462868FFF7BEFE28684FF0010AC0F848
:100D500008A02146286800F0B4F9606808BBD5F8FF
:100D600000B067690FE000BF94F8280008B10F26B3
:100D700015E041465846FFF7A0FE0028F4D0214672
:100D8000584600F09EF9206AB842F2D357464146D1
:100D90002868FFF792FE0028F9D02868C760C4F8D9
:100DA00014903046BFE700003C020020007900EBC1
:100DB000400101EBC000044901EB800040690028BC
:100DC00000D00120704700003C0200200149024889
:100DD00000F0C2BA68020020002000402DE9F04176
:100DE0000546164600790F46154A00EBC00102EB96
:100DF000810494F8201011B10820BDE8F081114958
:100E000051F820102868FFF77CFE08B11120F4E7A4
:100E100039462846FFF76AFC6660386920601EB1D3
:100E2000397F2846FFF7FCFC28680821C0F8001528
:100E30000020A061E0616061012184F82010DCE7FE
:100E400068020020901400002DE9F05F044600794C
:100E50000E4600EBC001DFF8F0A017460AEB810553
:100E60003046FFF746FEB0B168684FF000084FF417
:100E7000047910B12168C1F80893A8694FF0000BFC
:100E800080B1E86948B1686810B12068C0F804937F
:100E90001120BDE8F09F1020FBE7EF614FF0010843
:100EA0002E6102E0EE60C5E9067B00254FF48871F3
:100EB0002068FFF718FE4FF4A2712068FFF713FEB9
:100EC0002068C0F83465C0F838752068B8F1000FA4
:100ED00012D0D0F8001241F02001C0F800122079A1
:100EE000D04600EBC0010AEB8100406838B12068B1
:100EF000C0F804932846CCE701210160EFE74FF4E6
:100F0000887A4FF4A27951462068FFF7E7FD07463B
:100F100049462068FFF7E2FD06464FF492712068CB
:100F2000FFF7DCFD014647EA06000843EBD02279D3
:100F300002EBC20308EB8302C2F818B001B103252B
:100F4000002ED7D00F25D5E7680200202DE9F04705
:100F500004460E460079274900EBC00001EB8005EE
:100F600017463046FFF7C5FD30B1204600F044F883
:100F700020B11120BDE8F0871020FBE76F61AE6063
:100F80004FF490774FF0000839462068FFF7ABFD2B
:100F90004FF4AC7631462068FFF7A5FD2068AA68BB
:100FA0006969C0F84425C0F8481520684FF0010968
:100FB000C0F808906868D0B9BA4651462068FFF773
:100FC0008DFD074631462068FFF788FD0743F4D0C2
:100FD00010B14FF00F0808E02068C0F80C903146BF
:100FE0002068FFF77BFD0028F9D0002068614046AB
:100FF000C0E70000680200200079054900EBC0004E
:1010000001EB80004069002800D0012070470000FB
:101010006802002003490860034801680029FCD0E9
:101020007047000004E5014000E4014003498842A4
:1010300001D10348704700207047000000200040A5
:101040000C00002070B5054688690C4600284FF456
:10105000847128460AD0FFF735FDD5F81805626A75
:10106000E1688854606A401C606270BDFFF72AFD29
:10107000D5F8180570BD1FB501238DF80030CDE9F6
:101080000121D0E90012684690471FBD1FB501231A
:101090008DF80030CDE90121D0E900126846904773
:1010A0001FBD10B5044600684FF49271FFF70AFDAA
:1010B0004FF484712068FFF705FD2068012101606D
:1010C00010BD70B50C4605464FF48E71FFF7FAFC63
:1010D000216AA068415C206A401C2062C5F81C158A
:1010E00070BD1FB500228DF800200291816801912A
:1010F0004261D0E90012684690471FBD1FB500222B
:101100008DF800200291816801914261D0E90012BE
:10111000684690471FBD0178022901D0012902D1FC
:101120004068FFF7BFB970477CB50178254DA1B382
:1011300001290BD002291DD18DF80010C068691C4F
:1011400001900122C81DFFF731FC30E0017A59B14E
:10115000406801781C48FFF7CBF91B4C012650B1C1
:101160008DF8006001900DE016490122491CC81D50
:10117000FFF71CFC7CBDA068E168814205D000201F
:101180008DF80000696868468847A068E168081A19
:10119000A1888842E8D9AE707CBDFFE70A480949BA
:1011A0001030FFF78AF930B103208DF8000069682C
:1011B00068468847F0E70349012201F10800FFF77C
:1011C00005FCE9E7140000208C0200201FB50A4648
:1011D00001788DF8001041680191017A8DF80810AE
:1011E000C0680390044850F82210001F50F82220D5
:1011F000684690471FBD0000080000202DE9FF470A
:101200000C4605464FF40071FFF762FC01274FF4CE
:101210000178002618B34FF4927949462846FFF723
:101220004CFCE0B149462846FFF74CFCC5F8088362
:1012300094F8290000B96F6002208DF80000D5F8FD
:101240008004C5F880040390A0690290E0680190D2
:10125000A661E661D4E900126846904728E00421BF
:101260002846FFF735FC18B34FF484712846FFF782
:1012700024FCE8B121462846FFF7E4FE616AA06934
:10128000884215D1E06938B1E268616AA0612069DD
:10129000E6616662E06008E094F8290000B96F60DA
:1012A000C5F80883A661E268616A2046FFF7E3FE9D
:1012B0004FF48E7841462846FFF7FFFB80B1606906
:1012C000216A814202D294F8280028B34146284678
:1012D000FFF7F8FB606918B161692046FFF701FF6D
:1012E0004FF4A27841462846FFF7E7FB002818D0C4
:1012F00041462846FFF7E6FB94F8290000B12F602D
:10130000A06900280DD0A661E268616A04B0204699
:10131000BDE8F047FFF7AFBE21462846FFF7D1FEF4
:10132000DEE7BDE8FF8700001FB50A4601788DF8AB
:10133000001041680191017A8DF80810C06803908F
:10134000044850F82210001F50F8222068469047A9
:101350001FBD0000080000202DE9FF410C464FF49E
:10136000927705463946FFF7B9FB0026B8B13946F2
:101370002846FFF7B8FB02208DF80000D5F880045E
:10138000C5F880040390D5F83C050290E068019010
:10139000A661E661D4E900126846904723E04FF465
:1013A000887739462846FFF799FBE0B13946284649
:1013B000FFF799FBD5F83C15A069884213D1E06985
:1013C00060B1E268D5F8000220F02000C5F8000204
:1013D000E069A0612069E661E06001E0A661E26881
:1013E0002046FFF753FE4FF4A27739462846FFF711
:1013F00075FB68B139462846FFF775FBA06938B11F
:10140000A661E661D5F83C152046E268FFF73EFE8E
:101410004FF4907631462846FFF760FB60B13146C5
:101420002846FFF760FB0120E860606920B1D5F82D
:101430004C152046FFF762FE4FF4AC763146284645
:10144000FFF74CFB00280ED031462846FFF74BFB38
:101450006069002807D0D5F84C1504B02046BDE8D7
:10146000F041FFF74BBEBDE8FF810000080000001F
:10147000060000000500000007000000000000005A
:1014800000E0D7010D0E0F100B0C1819350B0000E2
:10149000CD0D0000FFFFFFFFFFFFFFFFFFFFFFFF7E
:1014A000FFFFFFFF00000000000000000000D60169
:1014B00006010000D4140000000000203C000000E1
:1014C00034040000101500003C00002074120000DD
:1014D00044040000000000000000000000000000C4
:1014E00000000000000000000000000000000000FC
:1014F000000000000020004000000000002000402C
:101500000000000000000000000000000090D00378
:0400000500000201F4
:00000001FF
